:100000002AC044C043C042C041C040C03FC03EC0FF
:100010003DC03CC03BC0F1C439C038C037C036C059
:1000200035C034C033C0DAC5E6C5F1C5F3C5FAC57D
:100030000AC61BC62BC640C641C642C64EC650C6DF
:1000400051C652C65CC666C665C664C65BC662C695
:1000500061C660C65AC611241FBECFE5D4E0DEBF1C
:10006000CDBF12E0A0E6B0E0E6EDF1E102C0059000
:100070000D92A034B107D9F712E0A0E4B2E001C0BC
:100080001D92AE34B107E1F75DD6A3C8B9CF809118
:100090004002882331F411B881E480B981E0809373
:1000A000400280E00895982FFB0184EA86BF06B6DF
:1000B00007FEFDCF81B1887F883011F0803161F477
:1000C00093B984E886BF06B607FEFDCF81B1887F6D
:1000D000883129F0803419F0808381E0089580E030
:1000E000089541E050E0B1E3A4EAF4E8E4E907C090
:1000F0009A012F5F3F4F6417750700F1A9019B2FED
:100100009A95F1F7A6BF06B607FEFDCF91B1987F8D
:10011000983011F0903161F783B9F6BF06B607FE4B
:10012000FDCF91B1987F903221F0983511F081E0A8
:100130000895E6BF06B604FCFDCFDACF80E008954F
:10014000B2DF089584E986BF06B604FCFDCF0895AA
:10015000FB0183B984E886BF06B607FEFDCF81B1F7
:10016000887F883211F480E00895808381E00895CB
:1001700084EC86BF06B607FEFDCF83B1089584E800
:1001800086BF06B607FEFDCF83B10895282F2295BE
:100190002F709AE0299F900111248F70820F08958B
:1001A000382F8DEC389FC0011124292F26952695D4
:1001B000269586EF9FEF289F802D1124830F22958F
:1001C000207F822B0895809143020895FC01808155
:1001D0008F5F80830895FC01808181508083089522
:1001E000FC0181818F5F81838D3028F081E08183E4
:1001F00080818F5F80830895FC018181815081839C
:10020000882329F48CE08183808181508083089544
:10021000FC0132813F5F32838181863059F0873023
:1002200028F4823059F0843039F404C0893011F058
:100230008B3011F48EE111C08FE10FC02081822F2D
:1002400090E083709070892B39F4822F64E68ED70A
:10025000992311F08DE101C08CE1831720F481E036
:100260008283CF01BDDF0895FC013281315032839A
:10027000818190E001978630910571F0873091057A
:1002800034F48230910561F0049741F405C089305F
:10029000910511F00B9711F48EE111C08FE10FC0A1
:1002A0002081822F90E083709070892B39F4822F07
:1002B00064E65CD7992311F08DE101C08CE1332312
:1002C00019F48283CF0198DF0895FC0183818F5F49
:1002D0008383883118F01382CF019ADF0895FC01DF
:1002E0008381882329F487E18383CF01BDDF0895CB
:1002F000815083830895FC0184818F5F84838C33D4
:1003000018F01482CF01E1DF0895FC018481882375
:1003100029F48BE38483CF01E2DF08958150848345
:100320000895EF92FF920F931F93CF93DF93182FAF
:10033000F62EE72E042F80914202882381F1442378
:1003400071F1812F90E0840F911D813491053CF56E
:1003500080ED64E670E0C5DE8823F1F0812F63E470
:1003600072E0F6DE8823C1F481ED63E472E0E8DE3A
:10037000882391F4CF2DDE2D102F7E0104C0F8DEEE
:10038000F70181937F011150D1F7F9DE0150C00FC1
:10039000D11D888311E001C010E0D4DE01C010E05F
:1003A000812FDF91CF911F910F91FF90EF900895D2
:1003B0007F928F929F92AF92BF92CF92DF92EF92F5
:1003C000FF920F931F93DF93CF93CDB7DEB727979D
:1003D0000FB6F894DEBF0FBECDBF6C01E62E809144
:1003E0004202882311F47724A5C180E0BE016F5F2B
:1003F0007F4F47E096DF882311F4772471C04F8147
:10040000842F82958F703AE0839FC00111244F7032
:10041000480FD6014C932E81822F82958F70839F37
:10042000C0011124122F1F70180F11961C931197E1
:100430002D81822F82958F70839FC0011124022FFE
:100440000F70080F12960C9312972B81822F8295B2
:100450008F70839FC00111242F70280F13962C9347
:1004600013972A81822F82958F70839FC001112458
:100470002F70280F14962C9314972981822F829520
:100480008F70839FC00111242F70280F15962C9315
:10049000E12FF0E0E15AFF4FE081242F30E0469554
:1004A0004695C901840F911D67E070E06BD6482F17
:1004B00023703070232B19F4133008F44A5F802F17
:1004C00067E054D6892F90E006968E0F911D840F19
:1004D000911D67E070E056D6F60186837724739409
:1004E000EE2009F427C1D6011196EC918E2F90E0F1
:1004F000FC01EE0FFF1FDF01A459BF4F0D911C91AE
:10050000E857FF4FE080F1805C010894A11CB11C0A
:10051000F601228130E0AA0CBB1CF501E459FF4F23
:1005200080819181801B910BAC01429FC001439F50
:10053000900D529F900D11246FE170E023D64B0176
:10054000800E911E88E890E0A80EB91ED5018D910D
:100550009C918E199F09FC01E29FC001E39F900DC1
:10056000F29F900D11246FE170E00CD6FB01EE0DAF
:10057000FF1DC40164E670E005D6D60119966C93A0
:10058000CF0164E670E0FED5D6011B966C93C401E2
:1005900064E670E0F7D52CE330E0AC01429FC00187
:1005A000439F900D529F900D112464E670E0EAD5B0
:1005B000D6011A966C93CF0164E670E0E3D5AC01E6
:1005C000429FC001439F900D529F900D112464E6FD
:1005D00070E0D8D5D6011C966C931C9714968C911C
:1005E00024E6829FC00111246CE370E0CBD5D601D4
:1005F00013968C911397829FC0011124680F791F65
:10060000681579052CF418961C9200E010E041C0A2
:10061000C4018C599F4F681779072CF46819790920
:10062000F6016087F2CF6E177F0724F4D601189683
:100630002C93EBCFCF018C599F4F681779073CF46F
:10064000E61BF70B8E2F8C59F6018087DECFD60183
:10065000DACF121664F4C60138DEF60181858F5FA9
:10066000818783858F5F83870F5F1F4F12C0C6010D
:1006700036DED60119968C911997815019968C9374
:1006800019971B968C911B9781501B968C93015048
:10069000104020914102822F992787FD90950817DD
:1006A0001907B9F6F6012181822F83508830C8F4EA
:1006B000822F84508630B8F0D60116963C9116975A
:1006C00012968C91129790E0831B91094997FCF048
:1006D000332321F413968C918330C8F02A3019F417
:1006E000F601178227C0D60119968C9119978F5F52
:1006F00019968C9319971B968C911B978F5F1B965D
:100700008C93C601E2DD81E0F601878313C02330BC
:1007100021F4D60117961C920DC0F60181858F5FDA
:10072000818783858F5F8387C601CFDD81E0D60116
:1007300017968C93872D27960FB6F894DEBF0FBEC1
:10074000CDBFCF91DF911F910F91FF90EF90DF9080
:10075000CF90BF90AF909F908F907F900895805FD3
:1007600041E0DFDD0895EF92FF920F931F93CF9347
:10077000DF93082FF62EE72E142F80914202882354
:1007800041F1442331F1802F90E0840F911D813499
:100790009105FCF480ED64E670E0A3DC8823B1F001
:1007A000802F63E472E0D4DC882381F48F2D9E2DAA
:1007B0009C01E901888163E472E0CADC115088235E
:1007C00029F421961123B1F711E001C010E0BADC41
:1007D00001C010E0812FDF91CF911F910F91FF9009
:1007E000EF900895EF92FF920F931F93DF93CF93B3
:1007F00000D0CDB7DEB78C017B018FEFFB0180838A
:1008000046DCF80180838823C1F481E080934202B2
:1008100080E880934402809144028A8387E0BE018D
:100820006E5F7F4F41E09FDF882301F583E0F80191
:10083000808380914302F701808380E00EC089812C
:1008400087FF06C08F77898380E0B80141E08BDFA6
:1008500081E061E472E083DF81E00F900F90CF913F
:10086000DF911F910F91FF90EF90089580E08E012E
:100870000F5F1F4FB80141E054DD882301F7E8CF37
:10088000DF93CF93CDB7DEB727970FB6F894DEBFCF
:100890000FBECDBFFC0180914202882309F476C0CF
:1008A00065814DEC649FC0011124969596959695AF
:1008B00026EF3FEF929F802D1124860F9295907F17
:1008C000892B89836481649FC00111249695969534
:1008D0009695929F802D1124860F9295907F892B5B
:1008E0008A836381649FC00111249695969596959D
:1008F000929F802D1124860F9295907F892B8B8358
:100900006681649FC0011124969596959695929F55
:10091000802D1124860F9295907F892B8F5F8C8379
:100920006281649FC0011124969596959695929F39
:10093000802D1124860F9295907F892B8D83618164
:10094000649FC0011124969596959695929F802D4F
:100950001124860F9295907F892B8E839081949F8E
:10096000A0011124852F869586958695829F202D3E
:100970001124290F8295807F282B2F8380E0BE01D0
:100980006F5F7F4F47E0EFDE811181E027960FB662
:10099000F894DEBF0FBECDBFCF91DF910895DF93F6
:1009A000CF930F92CDB7DEB76983805FBE016F5FD3
:1009B0007F4F41E0D8DE0F90CF91DF910895682FEF
:1009C000282F30E080914102992787FD90952817C4
:1009D000390721F06093410281E0E1DF08955D9BDA
:1009E000FECF8CB90895FC0104C05D9BFECF8CB98D
:1009F000319680818823C9F708951F920F920FB610
:100A00000F9211248F939F93EF93FF939CB180914A
:100A100045028823F9F49A3091F09D3081F080915D
:100A20004602833660F4E0914602F0E0E652FE4F63
:100A30009083809146028F5F809346020BC0E091C5
:100A40004602F0E0E652FE4F10821092460281E02C
:100A500080934502FF91EF919F918F910F900FBE70
:100A60000F901F901895982F80538A3028F4292FC3
:100A700030E02053304014C0892F8154863028F450
:100A8000292F30E0275330400BC0892F8156863004
:100A900018F02FEF3FEF04C0292F30E027553040EA
:100AA000C90108950F931F93CF93DF938C01FC012D
:100AB0008081D9DFEC01F8018181D7FD0CC0D3DF43
:100AC00097FD09C09E0144E0220F331F4A95E1F7CC
:100AD000280F391F02C02FEF3FEFC901DF91CF91DF
:100AE0001F910F9108958EE087BB81EA8FBD81E051
:100AF0008EBD81E685BD0895089580934702609379
:100B00004802409349028ABD68BD43BD08952F92B3
:100B10003F924F925F926F927F928F929F92AF928D
:100B2000BF92CF92DF92EF92FF920F931F93DF93CA
:100B3000CF9300D000D0CDB7DEB75C017C836B8350
:100B40006A0149013801270184E364E670E0C9DAEB
:100B5000882319F484EA90E02AC080E01E010894FA
:100B6000211C311CB101F4DA882309F0D3C085E3DC
:100B7000B101E6DA882309F0CDC0FADA8A83F8DA1F
:100B8000E82EF6DAF82EFBDA082FDCDA9F2D80E06B
:100B900010E0802B912B80509F4E09F0BBC084E366
:100BA00064E670E09EDA882329F48BEB90E01BDF8B
:100BB00080E0B1C083E0B101CBDA8AEAB101C8DAE2
:100BC000C1DA9A8180E0EE2DF0E0E82BF92BE831D4
:100BD000F10508F09FC0ED5EFF4F0994F50180819B
:100BE0009181029691838083853691050CF492C0A1
:100BF00084E690E08DC0F501808191810297918318
:100C0000808305970CF086C085E090E081C0EB8181
:100C1000FC8172C0F6011182108281E090E0EB81CC
:100C2000FC8176C0F6011182108284E690E0F50125
:100C3000918380838FEF90E0F40191838083F301AF
:100C40001182108210C0F6011182108284E690E0B9
:100C5000F50191838083F401118210828FEF90E07F
:100C6000F30191838083F20147C0F6011182108263
:100C700084E690E0F50191838083F4011182108273
:100C8000F301118210828FEF90E014C0F6011182FF
:100C9000108284E690E0F501918380838FEF90E0ED
:100CA000F401918380838FEE90E0F3019183808340
:100CB00080E690E0F2012CC0F40103C0F30101C012
:100CC000F201808191810896918380838F3F910505
:100CD00009F104F18FEF90E01BC081E090E017C0B4
:100CE000F40103C0F30101C0F201808191810897F2
:100CF0009183808397FF0EC0118210820BC082E027
:100D000090E005C083E090E002C084E090E0F6014E
:100D10009183808381E00F900F900F900F90CF917F
:100D2000DF911F910F91FF90EF90DF90CF90BF90D8
:100D3000AF909F908F907F906F905F904F903F907B
:100D40002F9008952F923F924F925F926F927F92D1
:100D50008F929F92AF92BF92CF92DF92EF92FF92CB
:100D60000F931F93DF93CF93CDB7DEB72C970FB6BA
:100D7000F894DEBF0FBECDBF8AB188698AB980B54D
:100D8000866880BD10BC87E089B9A8952FE088E10E
:100D900090E00FB6F894A89581BD0FBE21BDA8952F
:100DA00083ED90E020DE84B790E08F719070843006
:100DB0009105A9F08530910534F48130910549F011
:100DC0000297B1F409C08830910561F0409781F431
:100DD0000CC082EE90E00EC083EF90E00BC084E088
:100DE00091E008C086E191E005C087E291E002C091
:100DF00084E391E0F8DD8EE391E0F5DD8EE087BBE2
:100E000081EA8FBD81E08EBD81E685BDA99882E033
:100E100084BBA99A89E491E0E6DD04B603FE18C01C
:100E200020E040E050E92ABD18BC13BCCA0101977C
:100E3000F1F7A8952F5F2F3FB1F71092490210925A
:100E400048028EEF8093470284B7877F84BF14C027
:100E500020E040E050E91ABC28BD13BCCA0101974C
:100E6000F1F7A8952F5F2F3FB1F7109249028EEF4F
:100E7000809348021092470214BEA8958EE491E038
:100E8000B2DDF89404D9109247028FEF80934802A4
:100E9000809349021ABC88BD83BD789489E491E0AF
:100EA000A2DDA8958AE591E09EDD1092470210929E
:100EB0004802109249021ABC18BC13BC89E491E0A4
:100EC00092DD1A8219821C821B8284E690E09E8346
:100ED0008D838FEF90E098878F838FEE90E09A87D5
:100EE000898780E690E09C878B87CC24DD24E0E72F
:100EF000AE2EE1E0BE2E77E0272E312C2C0E3D1ECB
:100F000069E0462E512C4C0E5D1E5BE0652E712C67
:100F10006C0E7D1E4E010894811C911C88E691E0A8
:100F200062DDC394A89584EF91E0F5013197F1F764
:100F30000197D9F787E791E056DDCE010596B40118
:100F4000AE014D5F5F4F910182017301E0DD8823A7
:100F500011F0FF2405C08FE791E045DDFF24F394F5
:100F600086E891E040DD29813A812115310551F46F
:100F70001092470210924802109249021ABC18BC03
:100F800013BC68C02130310509F064C08B819C819D
:100F90008130910519F0029741F40AC000E010E099
:100FA0008C2D6AE0E3D0992349F401E010E006C0FB
:100FB0000C2D10E002271327017010702D813E8147
:100FC0008F819885AC01249FC001259F900D349F8F
:100FD000900D1124BC01609FC001619F900D709F16
:100FE000900D112464E670E0CDD0E62F89859A85B6
:100FF000AC01249FC001259F900D349F900D1124BA
:10100000BC01609FC001619F900D709F900D1124E5
:1010100064E670E0B7D0462F8B859C85BC01269F87
:10102000C001279F900D369F900D11249C01209F99
:10103000C001219F900D309F900D112464E670E057
:10104000A1D0E09347024093480260934902EABD71
:1010500048BD63BDFF20F9F0D3943AE03D15E0F4BC
:1010600088E891E0C0DC42E220E731E04ABD18BCEC
:1010700013BC80ED97E0F9013197F1F70197D9F7AB
:101080001ABC48BD13BC80ED97E0F9013197F1F728
:101090000197D9F7EBCFDD2488EB91E0A4DCA8958C
:1010A00084EF91E0F5013197F1F70197D9F736CF49
:1010B000BF92CF92DF92EF92FF920F931F93DF9335
:1010C000CF930F92CDB7DEB7B82E7B018A0164E6CD
:1010D00070E007D8882329F481EC91E084DC80E07B
:1010E0003AC080E06E010894C11CD11CB60130D812
:1010F000882381F58B2D8F5FB60122D8882351F587
:1011000037D8F70180831182F80180819181892B82
:1011100029F435D8F8018083118201C030D812D863
:1011200080E090E90197F1F7F7018081918118162D
:10113000190684F48B2D64E670E0D3D7882359F028
:1011400083E08E010F5F1F4FB80102D88AEAB80111
:10115000FFD7F8D781E00F90CF91DF911F910F91CA
:10116000FF90EF90DF90CF90BF900895991B79E0AA
:1011700004C0991F961708F0961B881F7A95C9F727
:101180008095089597FB092E07260AD077FD04D095
:101190000CD006D000201AF4709561957F4F089509
:1011A000F6F7909581959F4F0895AA1BBB1B51E1BF
:1011B00007C0AA1FBB1FA617B70710F0A61BB70BC7
:1011C000881F991F5A95A9F780959095BC01CD016C
:0611D0000895F894FFCF22
:1011D6000003030601040602050003050000C90218
:1011E600BA025B02F1018B0142012F014401A00109
:1011F600FD015C02BA02C9020000DE053A06980645
:10120600B0060907660779076707020799063306D6
:10121600DB05DE050D0A4572726F723A2057616969
:101226007420666F722049520D0A000D0A457272CB
:101236006F723A205761697420666F722049523284
:101246000D0A000D0A52657365742D436175736549
:101256003A00506F7765722D4F6E20526573657434
:101266000D0A0045787465726E616C20526573656F
:10127600740D0A0042726F776E2D4F757420526599
:101286007365740D0A005761746368646F67205252
:10129600657365740D0A004A5441472052657365AB
:1012A600740D0A00756E6B6E6F776E0D0A00496ECF
:1012B600697450574D2E2E2E004F4B0D0A004932A1
:1012C6004320496E69742E2E2E004C69676874207F
:1012D600496E69742E2E2E000D0A4C6F6F702073A6
:1012E600746172743A20005265616420495200208C
:1012F6006572726F72002C000D0A0D0A546F6F2012
:101306006D616E79206572726F72732C20726573CF
:10131600657474696E6720766961205761746368C5
:10132600646F670D0A0D0A004C6F6F7020456E647E
:10133600000D0A4572726F723A205265616420444C
:10134600697374616E63650D0A0000000000000099
:101356000000000000000000000000000000000087
:101366000000000000000000000000000000000077
:101376000000000000000000000000000000000067
:101386000000000000000000000000000000000057
:101396000000000000000000000000000000000047
:1013A6000000000000000000000000000000000037
:00000001FF
